:020000040800F2
:10000000000001205903000861030008690300088B
:10001000F1030008F90300084D0400080000000087
:10002000000000000000000000000000A104000823
:10003000A904000800000000B1040008250C000815
:10004000D1040008D1040008D1040008D10400083C
:10005000D1040008D1040008D1040008D10400082C
:10006000D1040008D1040008D1040008D10400081C
:10007000D1040008D1040008D1040008D10400080C
:10008000D1040008D1040008D104000800000000D9
:10009000000000000000000000000000D104000883
:1000A000D1040008D1040008D1040008D1040008DC
:1000B000D1040008D1040008D1040008D1040008CC
:1000C000D1040008D1040008D1040008D1040008BC
:1000D000D1040008210B0008450B000800000000B7
:1000E000D1040008D1040008D10400080000000079
:1000F000000000000000000000000000D104000823
:1001000000000000D1040008D1040008D104000858
:1001100000000000000000000000000000000000DF
:10012000D1040008D1040008D1040008D10400085B
:10013000D1040008000000000000000000000000E2
:10014000000000000000000000000000D1040008D2
:10015000D1040008D1040008D1040008690B00088C
:10016000D1040008D10400080000000000000000D5
:10017000000000000000000000000000000000007F
:1001800000000000D1040008000000000000000092
:10019000D104000880B596B000AF00F081FA5D4B45
:1001A0005D4A1A605D4B5C4A1A605D4B7B6523E0DB
:1001B0007B6D1A1D7A651B683B647B6D1A1D7A6521
:1001C0001B68FB637B6D1A1D7A651B68BB633B6C08
:1001D0007B63FB6B3B63BB6BFB623B6BBB6207E010
:1001E0007A6B131D7B63BB6A191DB96212681A60B2
:1001F000FA6ABB6A9A42F3D87B6D4A4A9342D7D3D4
:10020000444B1B68484A934204D1444B1B68474AFD
:10021000934200D0FEE7464B3F4A1A60454B3E4AA8
:100220001A60454B3B6519E03B6D1A1D3A651B682A
:10023000BB643B6D1A1D3A651B687B64BB6C7B62BB
:100240007B6C3B627B6AFB6104E0FB691A1DFA610F
:1002500000221A603A6AFB699A42F6D83B6D374A27
:100260009342E1D3324B1B68002B03D1314B1B6807
:10027000002B00D0FEE701F0CDFB3A1D07F108038B
:100280001146184600F076F92D4A2E4BD31A9B10D2
:100290003B610023FB6007E02A4AFB6852F82330E9
:1002A0009847FB680133FB603A69FB689A42F3DCCC
:1002B000254A264BD31A9B103B610023FB6007E0C5
:1002C000224AFB6852F823309847FB680133FB60F1
:1002D0003A69FB689A42F3DCBB687A6811461846B3
:1002E00001F09EFBF8641A4A1A4BD31A9B10BB61AB
:1002F000BB697B6108E07B69013B164A52F82330F9
:1003000098477B69013B7B617B69002BF3DCF86CD0
:1003100000F0F6F800000020BABADECAB0000020F3
:10032000D8040008F0040008785634123254769845
:10033000B400002068010020F00400080005000857
:100340000005000800050008000500080005000879
:10035000000500080005000880B500AFFFF71AFF90
:1003600080B400AF00BEFEE71EF0040F0CBFEFF339
:100370000880EFF309807146524A104700BF80B5EC
:1003800088B002AF78603960174B5B6B7B61164BAE
:100390009B6B3B61144B9B6AFB60134B1B6B03F025
:1003A0000203002B10D0104BDB6A002B0CDA4BF64B
:1003B000AB61786800F018FA0346002B04D00A4BB2
:1003C0004FF00042DA620CE0084800F0E5F83B68C4
:1003D00000933B697A69F968786800F06FF900BEAC
:1003E000FEE71837BD4680BD00ED00E0942400080C
:1003F00080B400AF00BEFEE71EF0040F0CBFEFF3A9
:100400000880EFF3098071462F4A104700BF80B57E
:1004100088B002AF786039600A4B5B6B7B61094B37
:100420009B6B3B61074B9B6AFB60074800F0B4F88D
:100430003B6800933B697A69F968786800F03EF997
:1004400000BEFEE700ED00E0A42400081EF0040F4B
:100450000CBFEFF30880EFF3098071461B4A104789
:1004600000BF80B588B002AF786039600A4B5B6B23
:100470007B61094B9B6B3B61074B9B6AFB600748A9
:1004800000F08AF83B6800933B697A69F9687868FC
:1004900000F014F900BEFEE700ED00E0B024000813
:1004A00080B400AF00BEFEE780B400AF00BEFEE740
:1004B00080B400AF00BEFEE780B400AF00BFBD4611
:1004C00080BC70477F0300080F0400086304000825
:0804D00080B400AF00BEFEE79E
:1004D800F424000800000020B4000020F4240008E0
:1004E8000000001000000010B40000206C01002083
:0804F8000000001000000010DC
:1005000080B483B000AF7860FEE7000080B584B0AF
:1005100000AF7860144B1B68002B02D1124B134ABA
:100520001A60114B1B68FB607B68033323F00303E5
:100530007B600D4B1A687B6813440D4A934207D9C0
:1005400001F09AFA02460C2313604FF0FF3306E0E5
:10055000054B1A687B681344034A1360FB6818460E
:100560001037BD4680BD00BFB80000206C010020E0
:1005700000FC002080B483B000AF786039607B68F5
:1005800001221A603B68034A1A6000BF0C37BD465F
:1005900080BC7047040000200FB480B582B000AF6B
:1005A00007F114033B603B683A6980210A4801F077
:1005B0009DFA78607B68002B05DD7B68194606484C
:1005C00000F00CF878607B6818460837BD46BDE837
:1005D000804004B0704700BFC000002080B582B0EA
:1005E00000AF786039603968786800F005F8034634
:1005F00018460837BD4680BDB0B590B000AF7860F2
:1006000039607A683B68134493F90030002B0BD1B2
:1006100004233B637B68FB623C6BFD6A20462946F2
:10062000ABBE0446BC6236E03B68FB6330E0FB6B6C
:10063000102B28BF10237B630023BB630EE07B6875
:1006400093F9001007F10C02BB6B13440A461A70B1
:10065000BB6B0133BB637B6801337B60BA6B7B6B25
:100660009A42ECD307F10C02BB6B134400221A70C0
:1006700004237B6207F10C033B627C6A3D6A2046DF
:100680002946ABBE0446FC61FA6B7B6BD31AFB6355
:10069000FB6B002BCBD13B6818464037BD46B0BD45
:1006A00080B500AF00F0C8F8024B034A9A6000BF63
:1006B00080BD00BF00ED00E00000000880B584B000
:1006C00000AFF860B9607A603B603448FFF764FFC0
:1006D000FB681B6819463248FFF75EFFFB685B68E2
:1006E00019463048FFF758FFFB689B6819462E48AB
:1006F000FFF752FFFB68DB6819462C48FFF74CFFF9
:10070000FB681B6919462A48FFF746FFFB685B69CF
:1007100019462848FFF740FFFB689B6919462648A1
:10072000FFF73AFFFB68DB6919462448FFF734FFFF
:100730002348FFF731FFB9682248FFF72DFF224B0E
:10074000DB6A19462148FFF727FF1F4B1B6B194631
:100750001F48FFF721FF1C4BDB6B19461D48FFF7B5
:100760001BFFBB6803F08003002B03D079681A4895
:10077000FFF712FFBB6803F40043002B03D0396876
:100780001648FFF709FF1648FFF706FFB969154835
:10079000FFF702FF00BF1037BD4680BD7823000879
:1007A0008823000898230008A8230008B82300081D
:1007B000C8230008D8230008E8230008F82300080D
:1007C000082400081424000800ED00E02424000898
:1007D0003424000844240008542400086424000839
:1007E000742400087C24000880B485B000AF7860D1
:1007F0000B467B807B689B69FB60FB681B887A8863
:100800009A4213D17B681B68BB60BB68032B03D083
:10081000042B03D000230AE000BF00E000BF7B6888
:100820009B699A1C7B689A61012300E000231846AB
:100830001437BD4680BC704780B400AF124B1B68B4
:10084000114A43F0010313600F4B00229A600E4BD4
:100850001B680D4A23F0847323F4803313600A4B22
:100860000A4A5A60084B1B68074A23F48023136026
:10087000054B0022DA60064B4FF000629A6000BF21
:10088000BD4680BC704700BF0038024010300024D5
:1008900000ED00E080B582B000AF78607B681B7A25
:1008A000002B3FD0012B7AD17B685B685B00614AEB
:1008B000B2FBF3F31A017B685B685B005E49B1FB36
:1008C000F3F17B685B685B005A48B0FBF3F364208C
:1008D00000FB03F3CB1ADB0032335849A1FB0313AF
:1008E0005B095B0003F4F873D1187B685B685B00FD
:1008F000514AB2FBF3F27B685B685B004D48B0FB8A
:10090000F3F3642000FB03F3D31ADB0032334B4ACA
:10091000A2FB03235B0903F007027B681B680A4400
:100920009A603CE07B685B689B00424AB2FBF3F351
:100930001A017B685B689B003F49B1FBF3F17B6860
:100940005B689B003B48B0FBF3F3642000FB03F3C0
:10095000CB1A1B0132333949A1FB03135B0903F0A6
:10096000F003D1187B685B689B00334AB2FBF3F25B
:100970007B685B689B002F48B0FBF3F3642000FBAF
:1009800003F3D31A1B0132332C4AA2FB03235B0966
:1009900003F00F027B681B680A449A6000BF7B6803
:1009A0001B7ADA037B685B7A1B031A437B689B7AAA
:1009B0009B021A437B68DB7A5B021A437B68DB7B12
:1009C000DB011A437B685B7C9B011A437B689B7B42
:1009D0001B021A437B681B7C5B011A437B681B7BF1
:1009E0009B001A437B681B68DA607B681B681A6986
:1009F0007B685B7B1B0319467B681B680A431A6193
:100A00007B681B685A697B689B7CDB0219467B68A4
:100A10001B680A435A617B681B68184600F073F82C
:100A20007B681B68184600F00BF800BF0837BD460E
:100A300080BD00BF80841E0000C2EB0B1F85EB5100
:100A400080B483B000AF78607B681B68DA687B682D
:100A50001B6842F40052DA607B681B681A697B6885
:100A60001B6842F008021A6100BF0C37BD4680BC0B
:100A7000704780B483B000AF78600B46FB7000E035
:100A800000BF7B681B681B68DB0903F00103002BB8
:100A9000F6D0FB780A2B04D17B681B680A225A60C7
:100AA00005E07B681B68FA785A6000E000BF7B684D
:100AB0001B681B689B0903F00103002BF6D07B68C1
:100AC0001B681A687B681B6822F040021A6000BF2E
:100AD0000C37BD4680BC704780B483B000AF7860EF
:100AE00000E000BF7B681B681B685B0903F0010323
:100AF000002BF6D07B681B685B68DBB218460C37AE
:100B0000BD4680BC704780B483B000AF78607B681E
:100B100000221A6000BF0C37BD4680BC7047000041
:100B200080B500AF0548FFF7EEFF054B1B68002BB3
:100B300002D0034B1B68984700BF80BD00100140E6
:100B40004001002080B500AF0548FFF7DCFF054BF2
:100B50001B68002B02D0034B1B68984700BF80BD69
:100B6000004400404401002080B500AF0548FFF775
:100B7000CAFF054B1B68002B02D0034B1B6898472C
:100B800000BF80BD001401404801002080B400AFC8
:100B9000074B1B68064A23F004031360044B1B68D1
:100BA000034A43F00203136000BFBD4680BC704798
:100BB00010E000E080B400AF044B1B68034A23F050
:100BC0000103136000BFBD4680BC704710E000E029
:100BD00080B483B000AF786039600F4A3B6813601F
:100BE0000E4B00229A607B684FF47A7202FB03F38B
:100BF000013B0A4A23F07F435360084B1B68074AB6
:100C000043F001031360064B01221A7000BF0C373A
:100C1000BD4680BC704700BF4C01002010E000E0E2
:100C20005001002080B500AF084B1B68002B02D09C
:100C3000064B1B689847064B1B78012B04D1044BCD
:100C400000221A70FFF7B6FF00BF80BD4C010020E4
:100C50005001002080B400AF164B9B68154A23F06A
:100C600001039360134B9B68124A23F002039360C5
:100C7000104B1B680F4A43F0010313600D4B9B6838
:100C80000C4A23F0F00393600A4B9B68094A43F037
:100C900080039360074B9B68064A23F4604393608C
:100CA000044B9B68034A43F4C043936000BFBD46B6
:100CB00080BC70470038024080B483B000AF034668
:100CC0000A46FB711346BB71FB79032B36D801A290
:100CD00052F823F0E50C0008FB0C0008110D000889
:100CE000270D0008184B1B6BBA79012101FA02F29B
:100CF0001146154A0B43136321E0134B5B6BBA7922
:100D0000012101FA02F211460F4A0B43536316E028
:100D10000D4B1B6CBA79012101FA02F211460A4A05
:100D20000B4313640BE0084B5B6CBA79012101FAA9
:100D300002F21146044A0B43536400E000BF00BFB7
:100D40000C37BD4680BC70470038024080B483B089
:100D500000AF78607B681B78012B00F0BB80022B12
:100D600000F07281002B00D027E2944B1B687A6858
:100D700052785200032101FA02F2D24311468F4AFF
:100D80000B4013608D4B1B687A68927811467A6825
:100D90005278520001FA02F21146884A0B4313605E
:100DA0007B689B78002B03D07B689B78032B1BD13F
:100DB000824BDB687A6852785200032101FA02F212
:100DC000D24311467D4A0B40D3607C4BDB687A6886
:100DD000527911467A685278520001FA02F21146AD
:100DE000764A0B43D360E3E17B689B78012B2FD1DC
:100DF000724B5B687A685278114601228A40D2436E
:100E000011466E4A0B4053606C4B5B687A68D2782F
:100E100011466A4A0B435360684B9B687A68527864
:100E20005200032101FA02F2D2431146634A0B40F9
:100E30009360624B9B687A68127911467A6852789F
:100E4000520001FA02F211465C4A0B439360AFE193
:100E50007B689B78022B40F0AB817B685B78072B2B
:100E60001BD8564B1B6A7A68527892000F2101FA00
:100E700002F2D2431146514A0B4013624F4B1B6A98
:100E80007A68927911467A685278920001FA02F2F1
:100E900011464A4A0B4313628AE1484B5B6A7A68FF
:100EA000527892000F2101FA02F2D2431146434ACE
:100EB0000B405362414B5B6A7A68927911467A68BB
:100EC0005278083A920001FA02F211463B4A0B436B
:100ED00053626DE13A4B1B687A68527852000321E5
:100EE00001FA02F2D2431146354A0B401360344BEB
:100EF0001B687A68927811467A685278520001FA33
:100F000002F211462E4A0B4313607B689B78002B3C
:100F100003D07B689B78032B1BD1294BDB687A6855
:100F200052785200032101FA02F2D2431146244AB8
:100F30000B40D360224BDB687A68527911467A689D
:100F40005278520001FA02F211461D4A0B43D36057
:100F500030E17B689B78012B34D1194B5B687A6850
:100F60005278114601228A40D2431146144A0B405E
:100F70005360134B5B687A68D2781146104A0B4372
:100F800053600F4B9B687A6852785200032101FA34
:100F900002F2D24311460A4A0B409360084B9B6809
:100FA0007A68127911467A685278520001FA02F290
:100FB0001146034A0B439360FCE000BF000002406F
:100FC000000402407B689B78022B40F0F3807B6832
:100FD0005B78072B1BD87B4B1B6A7A685278920090
:100FE0000F2101FA02F2D2431146764A0B401362F6
:100FF000744B1B6A7A68927911467A68527892002B
:1010000001FA02F211466F4A0B431362D2E06D4BB4
:101010005B6A7A68527892000F2101FA02F2D24399
:101020001146684A0B405362664B5B6A7A68927954
:1010300011467A685278083A920001FA02F2114693
:10104000604A0B435362B5E05F4B1B687A68527885
:101050005200032101FA02F2D24311465A4A0B40D0
:101060001360594B1B687A68927811467A685278F7
:10107000520001FA02F21146534A0B4313607B6897
:101080009B78002B03D07B689B78032B1BD14E4BA6
:10109000DB687A6852785200032101FA02F2D243E7
:1010A0001146494A0B40D360474BDB687A68527956
:1010B00011467A685278520001FA02F21146424A09
:1010C0000B43D36078E07B689B78012B2FD13E4B9C
:1010D0005B687A685278114601228A40D2431146F1
:1010E000394A0B405360384B5B687A68D2781146B6
:1010F000354A0B435360344B9B687A6852785200F0
:10110000032101FA02F2D24311462F4A0B409360A9
:101110002D4B9B687A68127911467A685278520092
:1011200001FA02F21146284A0B43936044E07B68BF
:101130009B78022B40D17B685B78072B1BD8224B16
:101140001B6A7A68527892000F2101FA02F2D243A8
:1011500011461D4A0B4013621B4B1B6A7A68927939
:1011600011467A685278920001FA02F21146164A44
:101170000B43136220E0144B5B6A7A68527892004A
:101180000F2101FA02F2D24311460F4A0B4053627B
:101190000D4B5B6A7A68927911467A685278083A00
:1011A000920001FA02F21146074A0B43536203E030
:1011B00000BF02E000BF00E000BF00BF0C37BD462B
:1011C00080BC7047000402400008024080B483B035
:1011D00000AF0346FB7100BF234BDB681B0C03F021
:1011E0000103012BF8D0204B1B69DB0F03F0010337
:1011F000012B05D11C4B1D4A5A601B4B1C4A5A60DF
:10120000194B1B69184A23F078031361164B1B69AD
:10121000FA79D2001146144A0B431361124B1B6931
:10122000114A43F0020313610F4B1B690E4A43F44A
:101230008033136100BF0C4BDB681B0C03F0010310
:10124000012BF8D0084BDB68074A43F00103D36059
:10125000054B1B69044A23F00203136100BF0C37DE
:10126000BD4680BC704700BF003C0240230167457B
:10127000AB89EFCD80B485B000AF786000BF2D4B57
:10128000DB681B0C03F00103012BF8D0294B1B6911
:10129000DB0F03F00103012B05D1264B264A5A60D0
:1012A000244B264A5A60234B1B69224A23F440737D
:1012B0001361204B1B697A68527A120211461D4A4B
:1012C0000B4313611B4B1B691A4A43F00103136163
:1012D0000023FB811DE07B685A68FB8913447A6810
:1012E00012681B78137000BF124BDB681B0C03F0F5
:1012F0000103012BF8D07B681B685A1C7B681A60BD
:101300000C4BDB680B4A43F00103D360FB890133CC
:10131000FB817B681B7A9BB2FA899A42DBD3054B2F
:101320001B69044A23F00103136100BF1437BD4653
:1013300080BC7047003C024023016745AB89EFCD7C
:1013400080B400AF044B9B68034A43F001039360F1
:1013500000BFBD4680BC70470030024080B584B0FD
:1013600000AF786039600023BB600023FB73FFF798
:10137000E7FF0023FB7369E0FB7B3A68D31A023373
:10138000032B1BD9FB7B7A6813441B781A06FB7B63
:10139000013379680B441B781B041A43FB7B02332F
:1013A00079680B441B781B021343FA7B033279687C
:1013B0000A4412781A432C4B1A6044E0FB7B3A68CB
:1013C000D31A012B17D1FB7B7A6813441B781A06BA
:1013D000FB7B013379680B441B781B041A43FB7BAE
:1013E000023379680B441B781B02134343F030022D
:1013F0001D4B1A6027E0FB7B3A689A4212D1FB7BB7
:101400007A6813441B781A06FB7B013379680B4416
:101410001B781B04134343F4405343F03003124A38
:10142000136010E0FB7B3A68D31AB3F1FF3F0AD197
:10143000FB7B7A6813441B781B0643F0301343F49C
:101440004053094A1360FB7B0433FB73FA7B3B6810
:1014500002339A4290D9044B1B68BB60BB681846A4
:101460001037BD4680BD00BF0030024080B485B05B
:1014700000AF0346FB710023FB73FB792F2B06D9CA
:10148000FB79392B03D8FB79303BFB7312E0FB79F6
:10149000402B06D9FB79462B03D8FB79373BFB73EE
:1014A00008E0FB79602B05D9FB79662B02D8FB7924
:1014B000573BFB73FB7B18461437BD4680BC704717
:1014C00080B58CB000AF78600023BB627B680833C6
:1014D0001B78342B38D1794B00221A607B68093392
:1014E0001B781846FFF7C2FF034687F824307B6855
:1014F0000A331B781846FFF7B9FF034687F82330F5
:101500007B680B331B781846FFF7B0FF034687F85C
:1015100022307B680C331B781846FFF7A7FF034681
:1015200087F8213097F824301A0397F823301B02EC
:101530001A4397F822301B011A4397F821301343BE
:101540001A465E4B1A60B4E07B6808331B78302B78
:1015500040F0AF807B6801331B781846FFF786FFA9
:10156000034687F827307B6802331B781846FFF75D
:101570007DFF034687F8263097F827301B015AB2C3
:1015800097F9263013435BB287F825307B68033325
:101590001B781846FFF76AFF034687F824307B68FC
:1015A00004331B781846FFF761FF034687F82330A2
:1015B0007B6805331B781846FFF758FF034687F80A
:1015C00022307B6806331B781846FFF74FFF03462F
:1015D00087F821300023FB6197F824301A0397F82D
:1015E00023301B021A4397F822301B011A4397F845
:1015F00021301343FB61324B1B681B0C1B04304A28
:1016000013602F4B1A68FB6913432D4A13602B4B51
:101610001B68002B03D1294B4FF400621A60274B43
:101620001B681B04FA691343BB62002387F82F3041
:101630002EE097F82F305B0009337A6813441B784B
:101640001846FFF713FF034687F8243097F82F302A
:101650005B000A337A6813441B781846FFF706FFCD
:10166000034687F8233097F824301B015AB297F9C4
:10167000233013435AB297F82F30D2B207F130011A
:101680000B4403F8242C97F82F30013387F82F30C0
:1016900097F82F2097F825309A42CAD3084A07F1C5
:1016A0000C035360064A97F8253013720448FFF77D
:1016B000E1FD00BF3037BD4680BD00BF54010020B2
:1016C0002000002080B584B000AF0023FB731C4BCA
:1016D000BB600BE0FB7B03F00103DAB2194B1A701D
:1016E000BB680133BB60FB7B0133FB73BB681B68CA
:1016F000DBB2002BEED0BB68134A93421BD105200E
:10170000FFF764FD114B00225A600023FB710DE0CE
:10171000FB7903F1006303F500331A460B4B1A60A3
:101720000A48FFF7A7FDFB790133FB71054B1B78D6
:10173000FA799A42ECD900BF1037BD4680BD00BF90
:101740000000020838000020FDFF23802C0000204C
:1017500080B586B000AF78600B46FB700023FB605D
:1017600000237B610023FB740023BB740023FB7206
:10177000FB78093BBB7410E0BB7C7A6813441B7890
:101780001846FFF773FE0346FB727B691A01FB7A6A
:1017900013437B61BB7C0133BB74BA7CFB78013B98
:1017A0009A42E9DBFB780B3B19467868FFF7D6FDD8
:1017B0000346FB60FA687B699A4201D10123FB74FE
:1017C000FB7C18461837BD4680BD000080B500AFD1
:1017D000FFF778FF0F4B1B78002B07D10E4B0F4AFA
:1017E0001A600F4B1B680F4A13600AE0094B1B7805
:1017F000012B06D1084B0C4A1A600C4B1B68094A96
:101800001360084B1B68002B02D0064B1B689847DF
:1018100000BF80BD3800002008ED00E00040000857
:10182000044000085801002000C0000804C000085F
:1018300080B582B000AFFFF745FF1F4B1B78FF2B31
:1018400011D11E4B1E4A1A6001237B6007E07B68A2
:10185000DBB21846FFF7BAFC7B6801337B607B681C
:10186000042BF4DD24E0144B1B78002B0ED1134B1A
:10187000144A1A600320FFF7A9FC0420FFF7A6FC16
:10188000114943F69820FFF7A3F911E00A4B1B78A2
:10189000012B0DD1094B0A4A1A600120FFF796FC73
:1018A0000220FFF793FC084943F69820FFF790F9D0
:1018B00000BF0837BD4680BD380000202C00002046
:1018C0000040000800C00008CD17000890B591B096
:1018D00000AF002387F83F303B1D3222002118461D
:1018E00000F0D0F8002387F83730012387F83E3026
:1018F00097F83F404348FFF7EFF803461A4607F1D1
:101900004003234403F83C2CFFF754F96B213D4876
:10191000FFF7AFF897F83F30013387F83F3069E0C1
:1019200039494FF4FA50FFF753F997F83F403548DB
:10193000FFF7D2F803461A4607F14003234403F8A1
:101940003C2CFFF737F96B212E48FFF792F897F8F8
:101950003F30013387F83F3097F83F30013B07F1C4
:101960004002134413F83C3C0A2BD9D13B79452B58
:101970001FD17B794E2B1CD1BB79442B19D1234B22
:10198000BB6302E0BB6B0133BB63BB6B1B68DBB2A9
:10199000002BF7D01E4ABB6B13601D4B00225A6010
:1019A0001B48FFF767FCFFF711FF002387F83E3065
:1019B0001AE097F83F203B1D11461846FFF7C8FE76
:1019C000034687F8373097F83730012B08D13B1D95
:1019D0001846FFF775FD6B210A48FFF74AF803E048
:1019E00045210848FFF745F8002387F83F300023DA
:1019F00087F8373097F83E30002BADD100BF443721
:101A0000BD4690BD0C000020CD1700080000020864
:101A10002C00002080B400AF00BFBD4680BC7047E2
:101A200080B500AFFFF716F900210020FFF744F959
:101A30000C210020FFF740F904210320FFF73CF9B7
:101A4000FFF7A4F80948FFF781F90948FFF77EF985
:101A50000848FEF71FFF0748FEF7F2FFFFF770FC8C
:101A6000FFF7E6FEFFF732FF00BFFDE73C00002076
:101A7000440000200C000020014B1868704700BF94
:101A80004C00002002440346934200D1704703F803
:101A9000011BF9E730B5141E05469BB0184605DA60
:101AA0008B232B604FF0FF301BB030BD4FF402731F
:101AB000ADF80C3014BF04F1FF33234602930593B5
:101AC0004FF6FF7300910491ADF80E3002461E9B55
:101AD0006946284600F072F8431CBCBF8B232B607C
:101AE000002CE1D0009B00221A70DDE707B50093BF
:101AF00013460A46014603480068FFF7CBFF03B0D0
:101B00005DF804FB4C0000202DE9F0478E689E42F2
:101B100082460C469046994637D88A8912F4906FCF
:101B200031D0256809696F1A6569022305EB4505FF
:101B300095FBF3F509F101033B449D4238BF1D4677
:101B4000530530D5294600F07DFB064650B90C23DD
:101B5000CAF80030A38943F04003A3814FF0FF305F
:101B6000BDE8F0873A46216900F0FAFAA38923F428
:101B7000906343F08003A381266165613E44ED1BC1
:101B80002660A5604E464E4500D94E463246414637
:101B9000206800F0F0FAA3689B1BA36023681E4432
:101BA00026600020DCE72A4600F0A6FB0646002857
:101BB000E2D12169504600F0F7FAC8E72DE9F04F6D
:101BC0009DB0804603938B891D060C4616460FD5A3
:101BD0000B696BB9402100F035FB2060206128B90A
:101BE0000C23C8F800304FF0FF30C7E0402363619A
:101BF0000023099320238DF8293030238DF82A30D3
:101C00004FF0010B37463D4615F8013B0BB1252B34
:101C10003ED1B7EB060A0BD053463246214640462A
:101C2000FFF772FF013000F0A480099B5344099331
:101C30003B78002B00F09D8000234FF0FF32CDE970
:101C40000523049307938DF853301A932F460522EA
:101C500017F8011B4F4800F033FA049BD0B9D9069E
:101C600044BF20228DF853201A0744BF2B228DF841
:101C700053202A782A2A15D0079A2F4600200A25B1
:101C8000394611F8013B303B092B4DD9B8B10FE073
:101C90002F46B8E73F4A801A0BFA00F01843049029
:101CA0003D46D3E7039A111D12680391002A01DB18
:101CB000079204E0524243F00203079204933B78F8
:101CC0002E2B0CD17B782A2B33D1039B1A1D1B683A
:101CD0000392002BB8BF4FF0FF33023705932E4D10
:101CE00039780322284600F0EBF938B14023401B35
:101CF00003FA00F0049B0343013704933978274823
:101D00008DF8281006227E1C00F0DAF9002838D061
:101D1000234B13BB039B073323F0070308330393C1
:101D2000099B4B4409936DE705FB023201200F46E6
:101D3000A6E700230137059319460A25384610F80F
:101D4000012B303A092A03D9002BC8D00591C6E7E8
:101D500005FB012101230746F0E703AB0093224670
:101D6000104B04A94046AFF30080B0F1FF3F81461D
:101D7000D6D1A3895B063FF536AF09981DB0BDE803
:101D8000F08F03AB00932246064B04A9404600F0B7
:101D900081F8EAE7BE240008C4240008C82400082B
:101DA00000000000091B00082DE9F04791461F467E
:101DB0008A680B69DDF820809342B8BF1346C9F8E2
:101DC000003091F8432006460C4612B10133C9F8A1
:101DD00000302368990642BFD9F800300233C9F8B1
:101DE0000030256815F0060507D104F1190AE368EB
:101DF000D9F800209B1AAB4228DC94F843302268C3
:101E0000003318BF012392062DD404F14302394652
:101E10003046C047013020D02368E568D9F800205B
:101E200003F00603042B08BFAD1AA36822690CBF98
:101E300025EAE57500259342C4BF9B1AED184FF0C3
:101E400000091A344D451AD1002008E001235246FA
:101E500039463046C047013003D14FF0FF30BDE86E
:101E6000F0870135C3E7E1185A1C302081F84300A0
:101E7000224494F8451082F843100233C5E7012349
:101E8000224639463046C0470130E6D009F1010903
:101E9000D8E700002DE9F04301F1430C0C46097E20
:101EA00085B06E291746064698460C9A00F0B38016
:101EB00022D8632936D00AD8002900F0B9805829E1
:101EC00000F0838004F1420584F8421032E0642976
:101ED00001D06929F6D120681368050603F10401D1
:101EE0002AD51B681160002B03DA2D225B4284F88F
:101EF00043206F480A2239E0732900F09D8008D8FA
:101F00006F2920D07029DDD1236843F0200323609E
:101F100003E0752917D07829D4D1782384F8453087
:101F2000644855E01368191D1B68116004F14205EF
:101F300084F8423001238CE01B68116010F0400FE0
:101F400018BF1BB2CFE713682568181D106028065C
:101F500001D51B6802E06806FBD51B8854486F2931
:101F600014BF0A220822002184F843106568A56086
:101F7000002DC0F29580216821F004012160002B22
:101F80003DD1002D40F08E806546082A0BD1236894
:101F9000DB0708D5236962689A42DEBF302305F863
:101FA000013C05F1FF35ACEB05032361CDF8008062
:101FB0003B4603AA21463046FFF7F6FE01304DD1DD
:101FC0004FF0FF3005B0BDE8F083394884F8451084
:101FD000136821681D1D1B6815600A060BD5CA070A
:101FE00044BF41F0200121601BB9226822F0200289
:101FF00022601022B7E74D0648BF9BB2EFE7654667
:10200000B3FBF2F102FB1133C35C05F8013D0B4653
:102010000029F5D1B9E7136825686169181D1060BA
:1020200028061B6801D5196002E06A06FBD51980F5
:10203000002323616546B9E71368191D11601D6807
:1020400062680021284600F03BF808B1401B606040
:1020500063682361002384F84330A7E723692A4695
:1020600039463046C0470130AAD023689B0713D4B5
:10207000E068039B9842B8BF1846A3E701234A468D
:1020800039463046C04701309AD00135E368039A9B
:102090009B1AAB42F2DCEBE7002504F11909F5E7E6
:1020A000002BACD1037884F8423004F142056CE790
:1020B000CF240008E0240008000000000000000019
:1020C00001F0FF01102A2BDB10F0070F08D010F8E9
:1020D000013B013A8B422DD010F0070F42B3F6D1ED
:1020E000F0B441EA012141EA014122F007047FF006
:1020F00000070023F0E80256083C85EA010586EA5D
:10210000010685FA47F5A3FA87F586FA47F6A5FA98
:1021100087F68EB9EED1F0BC01F0FF0102F00702A4
:1021200032B110F8013B013A83EA010313B1F8D14F
:102130000020704701387047002D06BF3546033830
:10214000073815F0010F07D1013015F4807F02BF69
:10215000013015F4C03F0130F0BC0138704700BFBA
:1021600010B5431E0A44914200D110BD11F8014B35
:1021700003F8014FF7E7884210B501EB020307D8D7
:10218000421E99420AD011F8014B02F8014FF8E7BC
:102190008342F5D98118D21AD34200D110BD13F869
:1021A000014D01F8014DF7E738B50546002945D046
:1021B00051F8043C0C1F002BB8BFE41800F0D2F813
:1021C0001F4A1368104633B9636014602846BDE89F
:1021D000384000F0C8B8A3420CD921686218934275
:1021E00004BF1A685B68636004BF52182260046011
:1021F000ECE713465A680AB1A242FAD9196858188E
:10220000A0420BD120680144581882421960DDD1E8
:10221000106852685A6001441960D7E702D90C234C
:102220002B60D3E7206821188A4204BF11685268E6
:10223000626004BF091821605C60C7E738BD00BF59
:102240005C01002070B5CD1C25F0030508350C2D70
:1022500038BF0C25002D064601DBA94203D90C230B
:102260003360002070BD00F07DF8214A14682146DB
:1022700091B9204C23681BB9304600F063F8206008
:102280002946304600F05EF8431C24D10C2333600D
:10229000304600F068F8E4E70B685B1B18D40B2BA2
:1022A0000FD90B60CD50CC18304600F05CF804F12B
:1022B0000B00231D20F00700C31AD3D05A42E2506E
:1022C000D0E78C424B6816BF636013600C46EBE7A7
:1022D0000C464968CCE7C41C24F00304A04205D096
:1022E000211A304600F02EF80130CFD02560DBE710
:1022F0005C01002060010020F8B5074614460E4638
:1023000021B91146BDE8F840FFF79CBF22B9FFF79D
:102310004BFF25462846F8BD00F026F8A0420FD214
:1023200021463846FFF78EFF05460028F2D0314699
:102330002246FFF715FF31463846FFF735FFE9E73C
:102340003546E7E738B5064C0023054608462360C6
:10235000FEF7DCF8431C02D1236803B12B6038BDC3
:10236000640100207047704751F8043C181F002B8F
:10237000BCBF0B58C0187047537461636B20667202
:10238000616D653A0A000000205230203D20202572
:102390003038580A00000000205231203D2020250E
:1023A0003038580A00000000205232203D202025FD
:1023B0003038580A00000000205233203D202025EC
:1023C0003038580A0000000020523132203D2025CC
:1023D0003038580A00000000204C52203D202025B3
:1023E0003038580A00000000205043203D202025AE
:1023F0003038580A0000000020505352203D20255C
:102400003038580A000000004653522F4641523AD5
:102410000A0000002043465352203D20202530383A
:10242000580A00002048465352203D2020253038CD
:10243000580A00002044465352203D2020253038C1
:10244000580A00002041465352203D2020253038B4
:10245000580A0000204D4D464152203D202530387D
:10246000580A00002042464152203D2020253038A5
:10247000580A00004D6973630A000000204C522F77
:102480004558435F52455455524E3D2025303858EB
:102490000A0000005B486172644661756C745D0AF5
:1024A000000000005B4275734661756C745D0A0044
:1024B0005B55736167654661756C745D0A00232D19
:1024C000302B2000686C4C0065666745464700303D
:1024D000313233343536373839414243444546008A
:1024E000303132333435363738396162636465668A
:0124F00000EB
:1024F40078563412BC000020000000000010014097
:10250400802500000100000003000000000001001D
:1025140000000000000000000100000000000000B6
:102524000000000001000000FFFFFFFF000902009F
:10253400000007FF000A0200000007FF500000200F
:102544000000000000000000000000000000000087
:102554000000000000000000000000000000000077
:102564000000000000000000000000000000000067
:102574000000000000000000000000000000000057
:102584000000000000000000000000000000000047
:102594000000000000000000000000000000000037
:0425A400325476989F
:040000050800019559
:00000001FF
